:100000000C94FA030C9434050C9417040C94170404
:100010000C9417040C9417040C9417040C941704F4
:100020000C9417040C9417040C9417040C941704E4
:100030000C9417040C9417040C9417040C941704D4
:100040000C9417040C9417040C9417040C941704C4
:100050000C9417040C9417040C9417040C941704B4
:100060000C9417040C941704FFE0FFD1AFFF32FF8C
:10007000D0FFFEFFE0FFD1AEFFD0FFFEFFE0FFD1DB
:100080001002FFFEFFD0FFE0FFC1FFD1AED580A878
:100090003FD300408D142002A1C8DA1281CFD9F1DC
:1000A000DB402EA4A6AFFFD0FFFE01060A00FE072C
:1000B0000136026820FFFE08FE07FE0A00602217D4
:1000C0006780808080800080163363A0A0A00257E4
:1000D000675050F850F850500257672070A07028B1
:1000E000702002576748A8502050A89002576740D8
:1000F000A0A040A8906826136380808012376720F4
:10010000408080804020123767804020202040803F
:100110000355658850F850880355652020F8202045
:10012000113363604080055161F811336340E04052
:1001300002576708081020408080025767205088C7
:10014000888850200257672060A0202020F802579E
:1001500067708808304080F8025767F80810300848
:10016000887002576710305090F81010025767F8E7
:1001700080B0C8088870025767304080B0C8887067
:10018000025767F8081010204040025767708888AF
:1001900070888870025767708898680810601137F7
:1001A0006740E0400040E04011376740E0400060B9
:1001B000408012476710204080402010045363F8AD
:1001C00000F8124767804020102040800257677077
:1001D000881020200020025767708898A8B080708F
:1001E00002576720508888F88888025767F0484887
:1001F000704848F002576770888080808870025786
:1002000067F04848484848F0025767F88080F08017
:1002100080F8025767F88080F0808080025767700E
:10022000888080988870025767888888F8888888CE
:10023000123767E04040404040E0025767381010F6
:10024000101090600257678890A0C0A09088025755
:1002500067808080808080F80257678888D8A88867
:1002600088880257678888C8A89888880257677066
:10027000888888888870025767F08888F080808036
:100280000158687088888888A87008025767F088C5
:1002900088F0A09088025767708880700888700284
:1002A0005767F820202020202002576788888888F8
:1002B0008888700257678888885050502002576796
:1002C000888888A8A8D888025767888850205088CE
:1002D0008802576788885020202020025767F80836
:1002E00010204080F8123767E08080808080E00234
:1002F000576780804020100808123767E0202020D0
:100300002020E0065363205088015161F8282262C2
:10031000804002556570087888780257678080B001
:10032000C888C8B002556570888088700257670811
:100330000868988898680255657088F88070025738
:1003400067304840F0404040005767788888780818
:1003500088700257678080B0C888888812376740E5
:1003600000C0404040E0104969100030101010906B
:10037000906002576780808890E09088123767C04D
:100380004040404040E0025565D0A8A8A8880255EA
:1003900065B0C8888888025565708888887000575D
:1003A00067B0C888C8B08080005767689888986828
:1003B0000808025565B0C88080800255657080705D
:1003C00008F00257674040F04040483002556588C9
:1003D000888898680255658888505020025565883D
:1003E00088A8A85002556588502050880057678813
:1003F000889868088870025565F8102040F8124700
:1004000067304020C0204030221767808080808085
:100410008080124767C02040304020C006536348A8
:10042000A890FFFFFFFFFFFFFFFFFFFFFFFFFFFFA2
:10043000FFFFFFFFFFFFFFFFFFFFFFFFFFFFFFFFCC
:10044000FFFFFF0A006022176780008080808080A5
:100450000157672078A0A0A0782002576730484055
:10046000E04048B00255658870507088015868882F
:10047000885020F82020202217678080800080800C
:10048000800158687080E09048380870193161A088
:100490000257677088A8C8A888701346667090B025
:1004A0005000F00265652448904824144262F01020
:1004B000154161F00257677088E8C8C88870095113
:1004C00061F816336340A0400256662020F82020D1
:1004D000F815456560902040F0154565E010601006
:1004E000E02822624080015666888888C8B0800271
:1004F000576778E8E868282828251161802022625B
:10050000408015356540C04040E0134666609090DD
:100510006000F0026565904824489001696940C018
:100520004040E40C143C0401696940C04040E814B8
:1005300004081C015969C0204020C8182878080206
:10054000576720002020408870025868402070883B
:1005500088F888880258681020708888F88888028F
:1005600058682050708888F8888802586848B070A9
:100570008888F888880258685000708888F88888C9
:100580000258682050708888F888880267673C5055
:10059000909CF0909C0059697088808080887020C1
:1005A0004002586840F88080F08080F80258681057
:1005B000F88080F08080F802586820F88080F08011
:1005C00080F802586850F88080F08080F81238680F
:1005D0008040E040404040E01238682040E0404029
:1005E0004040E012386840A0E040404040E012380F
:1005F00068A000E040404040E0025767F04848E80B
:100600004848F0025868285088C8A8988888025836
:100610006840207088888888700258681020708828
:10062000888888700258682050708888888870028E
:100630005868285070888888887002586850007000
:1006400088888888700255658850205088025767CE
:10065000709898A8C8C87002586840208888888810
:1006600088700258681020888888888870025868C6
:1006700020500088888888700258685000888888D0
:1006800088887002586810208888502020200257DF
:100690006780F088F0808080025767708890A09013
:1006A00088B002586840200070087888780258683E
:1006B0001020007008788878025868205000700870
:1006C000788878025868285000700878887802572F
:1006D00067500070087888780258682050207008A9
:1006E00078887802656578147C907C0057677088FC
:1006F00080887020400258684020007088F8807020
:100700000258681020007088F880700258682050E5
:10071000007088F8807002576750007088F8807009
:10072000123868804000C0404040E0123868408085
:1007300000C0404040E012386840A000C040404047
:10074000E0123767A000C0404040E0025767C03069
:100750007088888870025868285000B0C8888888D7
:1007600002586840200070888888700258681020FD
:1007700000708888887002586820500070888888C7
:100780007002586828500070888888700257675037
:100790000070888888700355652000F80020025595
:1007A000657898A8C8F00258684020008888889822
:1007B0006802586810200088888898680258682065
:1007C0005000888888986802576750008888889801
:1007D00068005969102088889868088870005868EF
:1007E00080F0888888F08080005969500088889857
:1007F0006808887011241FBECFEFD4E0DEBFCDBFE4
:1008000011E0A0E0B1E0E8E3FEE102C005900D9246
:10081000AC32B107D9F722E0ACE2B1E001C01D92E1
:10082000A430B207E1F70E940D050C941A0F0C9446
:100830000000ECEEF1E088E190E074E056E0811514
:10084000910509F435C061914FB7F89473B9660FFB
:1008500030F073B9000000005A9531F0F7CF000076
:100860005A9573B909F0F2CF000073B9660F28F0FA
:1008700073B90000019729F00EC0019773B909F010
:100880000AC0000073B9660F10F073B910C0000001
:10089000000073B90CC073B9660F28F073B9619189
:1008A00056E00000D3CF619173B956E0CFCF4FBF70
:1008B000089552985A9AE9E6F0E080818160808339
:1008C000E89A089584B18FEF84B940E060E071E068
:1008D00085EB91E00E94990A0E945904789408954A
:1008E0000F931F93CF93DF93CDB7DEB764970FB607
:1008F000F894DEBF0FBECDBF6BE171E08E010F5FDC
:100900001F4FC8010E94290C80912D018F93809167
:100910002C018F938EE091E09F938F931F930F9301
:100920000E94300C6AEA70E085EB91E00E94910928
:100930002CE131E04FE060E085EB91E00E94160988
:1009400098014EE160E085EB91E00E9416090F905E
:100950000F900F900F900F900F9064960FB6F89431
:10096000DEBF0FBECDBFDF91CF911F910F910895D4
:100970001F93CF93DF93182FC0E0D0E0612FCE01FB
:100980000E94ED0B60E0CE010E94F70B2196C8306B
:10099000D105A1F7DF91CF911F9108951F93CF93B8
:1009A000DF93182FC0E0D0E0612FCE010E94F70B3B
:1009B00060E0CE010E94ED0B2196C830D105A1F771
:1009C000DF91CF911F910895CF93DF9380913001F4
:1009D000909131016AE370E00E94150CEB016139DE
:1009E000714020F0C0912C01D0912D01C93CD1055E
:1009F0003CF488EC90E08C1B9D0B0E94B80405C071
:100A0000CE01885C91090E94CE04D0932D01C09341
:100A10002C01DF91CF910C9419040E9462040E9472
:100A2000EB0B299A2AE12A95F1F700C078942998CE
:100A30008FEF90E722E0815090402040E1F700C026
:100A4000000085EB91E00E94AE0A0E94700485EBE5
:100A500091E00E94B30A8111F8CF0E94E404109241
:100A6000310110923001DDCF1F920F920FB60F921D
:100A700011248F939F9380912E0190912F010197C4
:100A800091F4109281008091840090918500909360
:100A900031018093300110928500109284001092F1
:100AA0002F0110922E0180912E0190912F01892B00
:100AB00059F48091810082608093810081E090E010
:100AC00090932F0180932E019F918F910F900FBED5
:100AD0000F901F9018950F93FC010150040F84A9EB
:100AE00096A9941718F0081728F402C0081750F0B8
:100AF000041740F42150260F83A995A9961720F4D6
:100B0000281720F480E007C0281720F481E026177A
:100B100010F0F8CF81E00F910895DB011496ED916C
:100B2000FC91159720E030E061E00994DB01149618
:100B3000ED91FC91159720E030E063E00994DB0132
:100B40001496ED91FC91159720E030E040E064E0D0
:100B50000994DB011496ED91FC91159720E030E0AB
:100B600041E064E00994DB011496ED91FC91159746
:100B700020E030E062E00994DB011496ED91FC91F5
:100B8000159720E030E065E00994DB011496ED91C3
:100B9000FC91159766E00994CF92DF92EF92FF9255
:100BA0000F931F93CF93DF938C016B017A0180E049
:100BB000F701C49181110AC0CF3FE9F14C2FB60172
:100BC000C8010E94BC0581112FC03AC0CF3F11F46B
:100BD0004FEFF5CFCE3FB1F1C03F30F5C03E38F01A
:100BE0004C2F4F70B601C8010E94B3051DC0C03D17
:100BF00038F04C2F4F70B601C8010E94960514C002
:100C0000C03CA0F0B601C8010E949F05C295C07FFC
:100C1000CE5FD0E0CE010E944307B601C8010E941A
:100C2000A905CE010E94430780E006C0C7FDFCCFA6
:100C30008C2F90E0F7CF81E0FFEFEF1AFF0AB8CFDB
:100C400080E001C081E0DF91CF911F910F91FF9073
:100C5000EF90DF90CF900895CF93DF93FC0123A511
:100C6000222381F0EC0188E70E94E406811102C092
:100C700080E009C08EA1811180E40E941B078823B7
:100C8000B9F31BA681E0DF91CF9108950F931F93D5
:100C9000CF93C42F89016330C1F050F4613081F0EB
:100CA000623009F048C0FC0146A321E023A743C0FD
:100CB000663011F1673079F1653009F03CC00EC043
:100CC000FC0186A50E94AE0636C0FC0116A221E0FA
:100CD00023A7411130C00E943C072DC00E942C0662
:100CE000811104C00E943C0780E026C08C2F0E9426
:100CF0001B07811120C0F6CF0E942C06882391F398
:100D0000CC23C9F0F80181918F010E941B07882331
:100D100049F3C150F5CF0E942C06882319F3CC2348
:100D200051F0F80184910E941B07882329F00F5F7E
:100D30001F4FC150F4CF81E0CF911F910F910895C3
:100D400090913401911104C0809334016093320179
:100D50000895109234011092320108958093330166
:100D60001092B90084FF02C082E001C080E280934B
:100D7000B8000C94A9061F93CF93DF9300D0CDB792
:100D8000DEB720ED37E03A8329839091BC009823A9
:100D900099F429813A81232B51F480913301182F42
:100DA000127081FD09C081E00E94A00606C0298161
:100DB0003A8121503109E7CF11E0812F0F900F9038
:100DC000DF91CF911F910895CF93C82F84EA80932C
:100DD000BC0061E080E80E94BB06882359F0809146
:100DE000B900887F883041F0803131F061E082E0E5
:100DF0000E94A006C0E01CC0C093BB0084E88093A2
:100E0000BC0062E080E80E94BB06882399F38091D1
:100E10003301C82FC27081FD0AC08091B900887F5C
:100E2000883129F062E082E00E94A00601C0C1E0A2
:100E30008C2FCF910895CF938093BB0084E880934B
:100E4000BC0063E080E80E94BB06C82F882389F0BD
:100E500080913301C82FC27081FD0AC08091B90012
:100E6000887F883229F063E082E00E94A00601C0FA
:100E7000C1E08C2FCF91089584E98093BC0064E099
:100E800080E10C94BB062EEC37E0009729F0F901C5
:100E90003197F1F70197F9CF0895AF92BF92CF92B2
:100EA000DF92FF920F931F93CF93DF938C01EB019F
:100EB000F42E690180E14817B1F1841770F0EAE07F
:100EC0004E133CC042E0C8010E948D0544E850E04A
:100ED000BE01C8010E94CC0531C0F1E14F1731F1CC
:100EE00085E148132BC0AA80BB804CE750E0C801C5
:100EF0000E94CC05F5014481406BBE01C8010E94EF
:100F0000BC0541E0BE01C8010E94B305AE01B801B5
:100F1000C5010E94370B882301F140E0BE01C801E2
:100F20000E9496050BC043E750E002C048E650E03F
:100F3000BE01C8010E94CC0581E00FC096014F2D73
:100F4000BE01C801DF91CF911F910F91FF90DF90FB
:100F5000CF90BF90AF900C94A30BDF91CF911F91D6
:100F60000F91FF90DF90CF90BF90AF900895FC015C
:100F7000E60FF11D849190E0982F88273196E49137
:100F80008E0F911D0895FC01849108950E94C3075E
:100F9000882321F0823011F083E0089586E00895DF
:100FA00080E0089566E00C94B70768E00C94B707FA
:100FB0000A96FC01849108950B96FC018491089592
:100FC000BF92CF92DF92EF92FF920F931F93CF9336
:100FD000DF938C01E62EDC011496CD91DC91159700
:100FE000CE010E94C307F82EF801848195810E94EA
:100FF000C607C82EF1E0FF1203C02FE0B22E02C0D8
:10100000BB24BA94D80114968D919C9115970E9497
:10101000D807F82EF801848195810E94DC07D82E2C
:10102000D80114968D919C9115970E94D507B0E632
:10103000BE1538F4009729F0C80FD91F91E6F92E94
:1010400010C0F801848195810E94D207F0E4FE155A
:1010500038F4009729F0C80FD91F81E4F82E01C099
:101060006196DE1490F4D80150961C9250975396D6
:101070001C92539754961C92549751961C925197D8
:1010800052961C9280E090E067C0DF1460F38C2DD4
:1010900090E0FE0124912F3F11F4219658C0FE10DC
:1010A0004DC0D80114968D919C9115970E94C3074D
:1010B0009E012F5F3F4FFE01882311F08230E1F443
:1010C0008491D80153968C935397F90124915496A7
:1010D0002C935497FE013396E4915096EC935097DD
:1010E000FE013496E4915196EC935197FE013596AA
:1010F000E4915296EC9320C08491982F9F70925067
:10110000D80152969C93529782958F7051968C93EA
:101110005197F9012491822F8F7054968C93549794
:1011200022952F7053962C935397FE013296E4919B
:10113000E295EF705096EC93CE010EC0FE01329610
:10114000E491EB219C012E0F311DC20FD31FFD1422
:1011500009F489CFF3949DCFDF91CF911F910F9127
:10116000FF90EF90DF90CF90BF9008956F927F92A5
:101170008F929F92AF92BF92CF92DF92EF92FF92A7
:101180000F931F93CF93DF93EC01C62E742E622F23
:101190000E94E0077C01892BC9F18C819D810E940E
:1011A000C607B82E1B890C898989C80E8A89781AC6
:1011B000D72CD01A212F4D2D6C2DCE010E946B05FE
:1011C000882311F1EB0CF11C195F169516951695F5
:1011D000812E912C7D14C1F06C2C57018A2D8E1913
:1011E000811770F4F501049120E04D2D662DCE019C
:1011F0000E94C20AFFEFAF1ABF0A88E0680EEECF66
:10120000E80CF91CD394E6CF888901C080E0DF9117
:10121000CF911F910F91FF90EF90DF90CF90BF90F3
:10122000AF909F908F907F906F900895CF92DF92B4
:10123000EF92FF920F931F93CF93DF937C01D62EF3
:10124000042FC22E132FDC015596ED91FC91569779
:101250000995080FCC2DD12F10E02991222341F0C0
:10126000402F6D2DC7010E94B608D80E180FF5CF7C
:10127000812FDF91CF911F910F91FF90EF90DF9021
:10128000CF900895DC0114962D913C91159721156E
:10129000310509F43FC057968C915797F901811198
:1012A00008C03596E4915896EC935897F9013C960E
:1012B00011C0813041F43F96E4915896EC935897D1
:1012C000F901709607C03D96E4915896EC935897B3
:1012D000F9013E96E4915996EC93599758968C9162
:1012E0005897082E000C990B59962C915997821BF0
:1012F000910927FD93955A962C915A97203441F0E5
:10130000829FC001112426E0969587952A95E1F7E2
:101310005B968C93089520ED37E0FC01368B258B8E
:101320000895CF93DF93FC01248135812617370779
:1013300049F0EC01758364830E94420980ED97E0D7
:101340009E8B8D8BDF91CF9108951F93CF93DF9369
:10135000EC011D821C821F821E82198681E0888713
:1013600082E28A871F861E86FE01B396CE01C19651
:101370002FEF2193E817F907E1F711E018A3CE0149
:101380000E948B091F8B188E198E80E48A8F1B8E0A
:101390008AEE9BE09AAB89ABDF91CF911F910895C4
:1013A000DB01ED91FC9109940F931F93CF93DF9391
:1013B000EC018B01E9A9FAA982E0099520E030E06F
:1013C0004AE0B801CE010E94D009182FE9A9FAA974
:1013D00083E00995E9A9FAA980E00995812FDF91B9
:1013E000CF911F910F9108950F931F93CF93DF9388
:1013F000EC018B01E9A9FAA982E00995E9A9FAA90A
:1014000081E0099520E030E044E1B801CE010E947E
:10141000D0099E012D5C3F4F47E1B801CE010E94EB
:10142000D009E9A9FAA980E0DF91CF911F910F912E
:101430000994EF92FF921F93CF93DF93EC017B010E
:10144000E9A9FAA982E00995E9A9FAA981E0099533
:1014500020E030E045E1B701CE010E94D009182F0D
:10146000882341F09E012D5C3F4F47E1B701CE013B
:101470000E94D009E9A9FAA980E00995812FDF919E
:10148000CF911F91FF90EF900895CF93DF931F921C
:10149000CDB7DEB79E012F5F3F4F46E40E94D009D3
:1014A00089810F90DF91CF910895CF93DF931F92A1
:1014B000CDB7DEB79E012F5F3F4F47E40E94D009B2
:1014C00089810F90DF91CF91089520E030E048E4CA
:1014D0000C94D009CF93DF93EC016A817B810E9449
:1014E000450A88836A817B81CE010E94550A8983DF
:1014F0006A817B81CE010E94650A8B879E012D5CEB
:101500003F4F6A817B8147E1CE01DF91CF910C94FF
:10151000D009CF93DF93EC016A817B810E94D409CB
:10152000882321F0CE010E946A0A81E0DF91CF91E9
:101530000895EF92FF921F93CF93DF93EC017B010D
:10154000142F0E94A509FB82EA821EA7CE01DF911B
:10155000CF911F91FF90EF900C94890AFC0162815A
:1015600073810C94F409CF93DF93EC01EE85FF8532
:10157000309709F009956A817B81CE01DF91CF9187
:101580000C94190A0F93FC0182819381648F458F1B
:10159000278F068F9F01245E3F4F4BE3BC01CF0195
:1015A0000F910C94D009FC011282808181508383B9
:1015B00014820895FC0130819281930F92832181DE
:1015C000921760F494819F5F94838381830F8217C5
:1015D00010F08FEF820F838381E0089580E00895FB
:1015E000DC011696ED91FC91179715968C919F0151
:1015F000280F311DC9011192E817F907E1F7089585
:1016000031E0FC012381261708F430E021E0FC01E1
:101610008281481708F420E091E0461708F090E036
:10162000892F832B2823832F8923822B0895DC0184
:10163000FB01108212968C911297818315968C91E2
:1016400015978150828313968C9183830895FB01B3
:1016500041812381213029F0233031F468EF640F78
:1016600004C0642F485F01C0642F0C94000BFC0180
:10167000CB01BA012681378145810C94C505DC0177
:101680001696ED91FC91179712968C91481B477016
:1016900081E090E001C0880F4A95EAF7E60FF11D5E
:1016A0003081222311F0832B02C080958323808315
:1016B0000895FB014181DC0112962C91129742178B
:1016C00068F013962C911397241740F060811596BB
:1016D0002C91621718F424810C943F0B0895CF923B
:1016E000DF92FF920F931F93CF93DF936C01EB0177
:1016F000FA808B81813051F030F0823049F08330B4
:1017000051F41FEF09C010E001E007C011E004C070
:1017100010E00FEF02C010E000E0F7FE04C0BE01D1
:10172000C6010E94590B8881800F88838981810FAF
:101730008983FF0C91F7DF91CF911F910F91FF905B
:10174000DF90CF9008950F931F93CF93DF9389017C
:10175000FB01C281D3814233F9F068F4453109F1CC
:10176000473141F1443181F5CE010E94F00ACE01AA
:101770000E94D30A29C0463411F1473411F14B338A
:1017800019F5B901CE010E94270B8823E9F0B801B1
:10179000CE010E946F0B18C0B901CE010E94590BF7
:1017A00013C0CE010E94DA0A882379F0CE010E948C
:1017B000F00A0AC0B901CE010E94170B05C08D8145
:1017C00001C08981F801808381E0DF91CF911F9171
:1017D0000F9108950895229A08959C01220F331FB6
:1017E000820F931FFC01E451FE4F618308959C0119
:1017F000220F331F820F931FFC01E451FE4F6083C1
:101800000895AA1BBB1B51E107C0AA1FBB1FA61747
:10181000B70710F0A61BB70B881F991F5A95A9F799
:1018200080959095BC01CD01089597FB072E16F485
:10183000009407D077FD09D00E94010C07FC05D069
:101840003EF4909581959F4F0895709561957F4FD7
:101850000895FB01DC0101900D920020E1F708954D
:10186000AEE0B0E0E6E3FCE00C94F10E0D891E89D9
:1018700086E08C831A8309838FEF9FE79E838D8395
:10188000AE01475E5F4F6F89788DCE0101960E9451
:10189000520CEF81F885E00FF11F10822E96E4E0E4
:1018A0000C940D0FABE0B0E0E8E5FCE00C94E30E27
:1018B0006C017B018A01FC0117821682838181FF02
:1018C000CCC1CE0101963C01F6019381F70193FD55
:1018D000859193FF81917F01882309F4BAC18532F4
:1018E00039F493FD859193FF81917F01853229F42D
:1018F000B60190E00E94490EE7CF912C212C312CAB
:10190000FFE1F315D8F08B3279F038F4803279F0BA
:101910008332A1F4232D20611DC08D3261F080330C
:1019200069F4232D216016C0832D8260382EE32DAB
:10193000E4603E2E2AC0F32DF8601DC037FC2DC098
:1019400020ED280F2A3040F08E32B9F436FC81C1E8
:10195000232D2064322E19C036FE06C08AE0989EE0
:10196000200D1124922E11C0EAE02E9E200D11248C
:10197000222EF32DF0623F2E08C08C3621F4832DE9
:101980008068382E02C0883641F4F70193FD8591B6
:1019900093FF81917F018111B3CF982F9F7D955443
:1019A000933028F40C5F1F4F9FE399830DC083365B
:1019B00031F0833771F0833509F059C021C0F80147
:1019C000808189830E5F1F4F88248394912C53015B
:1019D00013C02801F2E04F0E511CF801A080B18025
:1019E00036FE03C0692D70E002C06FEF7FEFC501C6
:1019F0000E943E0E4C018201F32DFF773F2E16C050
:101A0000280122E0420E511CF801A080B18036FE70
:101A100003C0692D70E002C06FEF7FEFC5010E9427
:101A2000330E4C01F32DF0683F2E820133FC1BC0B6
:101A3000822D90E088169906B0F4B60180E290E01D
:101A40000E94490E2A94F4CFF50137FC859137FEA8
:101A500081915F01B60190E00E94490E21102A9405
:101A600021E0821A91088114910471F7E8C084364C
:101A700011F0893641F5F80137FE07C060817181A8
:101A8000828193810C5F1F4F08C060817181072E96
:101A9000000C880B990B0E5F1F4FF32DFF763F2E26
:101AA00097FF09C090958095709561957F4F8F4FF6
:101AB0009F4FF0683F2E2AE030E0A3010E94850E80
:101AC000882E861845C0853731F4232D2F7EB22EFF
:101AD0002AE030E025C0932D997FB92E8F36C1F0D2
:101AE00018F4883579F0B5C0803719F0883721F0BF
:101AF000B0C0E92FE061BE2EB4FE0DC0FB2DF46036
:101B0000BF2E09C034FE0AC0292F2660B22E06C09F
:101B100028E030E005C020E130E002C020E132E002
:101B2000F801B7FE07C060817181828193810C5FEB
:101B30001F4F06C06081718180E090E00E5F1F4FF3
:101B4000A3010E94850E882E8618FB2DFF773F2E5D
:101B500036FE0DC0232D2E7FA22E891458F434FE9C
:101B60000BC032FC09C0832D8E7EA82E05C0B82C78
:101B7000A32C03C0B82C01C0B92CA4FE0FC0FE01D9
:101B8000E80DF11D8081803321F49A2D997EA92ED4
:101B900009C0A2FE06C0B394B39404C08A2D86780F
:101BA00009F0B394A3FC11C0A0FE06C0B21488F4DF
:101BB000280C922C9B180EC0B21460F4B60180E27F
:101BC00090E00E94490EB394F7CFB21418F42B188A
:101BD00002C0982C212CA4FE10C0B60180E390E036
:101BE0000E94490EA2FE17C0A1FC03C088E790E046
:101BF00002C088E590E0B6010CC08A2D867859F0C5
:101C0000A1FE02C08BE201C080E2A7FC8DE2B6011A
:101C100090E00E94490E891438F4B60180E390E008
:101C20000E94490E9A94F7CF8A94F301E80DF11DB2
:101C30008081B60190E00E94490E8110F5CF2220EC
:101C400009F442CEB60180E290E00E94490E2A9447
:101C5000F6CFF6018681978102C08FEF9FEF2B961A
:101C6000E2E10C94FF0EFC01059061507040011000
:101C7000D8F7809590958E0F9F1F0895FC016150B5
:101C8000704001900110D8F7809590958E0F9F1F9E
:101C900008950F931F93CF93DF93FB01238121FDC1
:101CA00003C08FEF9FEF2CC022FF16C046815781E3
:101CB000248135814217530744F4A081B1819D01ED
:101CC0002F5F3F4F318320838C93268137812F5F95
:101CD0003F4F3783268314C08B01EC01FB01008446
:101CE000F185E02D0995892BE1F6D80116968D91A5
:101CF0009C911797019617969C938E931697CE01F9
:101D0000DF91CF911F910F910895FA01AA272830F2
:101D100051F1203181F1E8946F936E7F6E5F7F4FB8
:101D20008F4F9F4FAF4FB1E03ED0B4E03CD0670F34
:101D3000781F891F9A1FA11D680F791F8A1F911D87
:101D4000A11D6A0F711D811D911DA11D20D009F4D7
:101D500068943F912AE0269F11243019305D319319
:101D6000DEF6CF010895462F4770405D4193B3E002
:101D70000FD0C9F7F6CF462F4F70405D4A3318F0A9
:101D8000495D31FD4052419302D0A9F7EACFB4E05A
:101D9000A6959795879577956795BA95C9F7009712
:101DA0006105710508959B01AC010A2E06945795B3
:101DB000479537952795BA95C9F7620F731F841F0A
:101DC000951FA01D08952F923F924F925F926F92A0
:101DD0007F928F929F92AF92BF92CF92DF92EF92BB
:101DE000FF920F931F93CF93DF93CDB7DEB7CA1B3C
:101DF000DB0B0FB6F894DEBF0FBECDBF09942A8867
:101E0000398848885F846E847D848C849B84AA840E
:101E1000B984C884DF80EE80FD800C811B81AA819B
:101E2000B981CE0FD11D0FB6F894DEBF0FBECDBF66
:081E3000ED010895F894FFCFC5
:101E38004D070601460608400000008035014F6442
:101E48006C65676C6F73633A20256400446973742A
:0C1E5800616E63652073656E736F72002D
:00000001FF
